:100000001CC060C15FC197C05DC15CC15BC15AC10A
:1000100059C158C157C156C155C154C153C152C12C
:1000200051C150C14FC14EC14DC14CC14BC14AC15C
:1000300049C148C13F003F08800011241FBECFEFD7
:10004000CDBFDFE3DEBFE4E3F0E040E017C0B591F1
:10005000A59135912591059107FD0CC0959185914C
:10006000EF01F92FE82F05900D92A217B307D9F7EA
:10007000FE0104C01D92A217B307E1F7E933F407AC
:0A00800031F703D010C1F894FFCF50
:10008A000798069A029A019AFFD0099A00E010E0AE
:10009A00B12CA12CC0E0D0E0EAD0BC0180E090E015
:1000AA0085D06B017C0120E030E04FE754E401D1B8
:1000BA0018166CF4B1100DC00A9A8DE890E20197F7
:1000CA00F1F70000BB24B39401E010E00DC0BB209F
:1000DA0059F00F5F1F4F0233110520F00A98BB2415
:1000EA00B39402C0BB24B39420E030E04AE754E45E
:1000FA00C701B601DAD0882314F40A98B12CC039A2
:10010A0091E0D90760F0A11006C00E9AAA24A39420
:10011A00C0E0D0E004C00E98A12CC0E0D0E08DE889
:0C012A0090E20197F1F700002A96B6CF92
:100136001F920F920FB60F9211242F933F934F9356
:100146005F936F937F938F939F93AF93BF93EF9339
:10015600FF931F9B05C0E091063FF091073F09956D
:10016600199B05C0E091043FF091053F09951A9B44
:1001760005C0E091023FF091033F09951E9B05C023
:10018600E091003FF091013F09958FEF83B9FF9110
:10019600EF91BF91AF919F918F917F916F915F91F9
:1001A6004F913F912F910F900FBE0F901F90189572
:1001B600E89409C097FB3EF49095809570956195FB
:1001C6007F4F8F4F9F4F9923A9F0F92F96E9BB27B1
:1001D6009395F695879577956795B795F111F8CF2D
:1001E600FAF4BB0F11F460FF1BC06F5F7F4F8F4F98
:1001F6009F4F16C0882311F096E911C0772321F08E
:100206009EE8872F762F05C0662371F096E8862F25
:1002160070E060E02AF09A95660F771F881FDAF77C
:0A022600880F9695879597F90895C3
:10023000990F0008550FAA0BE0E8FEEF16161706F7
:10024000E807F907C0F012161306E407F50798F05F
:10025000621B730B840B950B39F40A2661F0232B78
:10026000242B252B21F408950A2609F4A140A695F4
:080270008FEF811D811D08952F
:1002780081E080930806E0E0F6E0838580FFFDCF0B
:0A0288008091100690911106089570
:10029200E0E0F6E0108280E5828387E0868381E0F9
:0402A20080830895B8
:0E02A600EC010FD00DD0CE010DD0CE010CD04A
:0802B400BDDF08F481E00895AC
:0802BC00B9DF08F48FEF08958B
:0202C4009DCECD
:0202C600089599
:0202C800089597
:0202CA00089595
:0202CC00DCDE76
:02000004008278
:090000000000020000C40700002A
:00000001FF
